:020000040800F2
:1000000080040020A9050008DD020008DF020008C6
:10001000E3020008E7020008EB020008000000000D
:10002000000000000000000000000000EF020008D7
:100030009B030008000000009D0300089F030008C8
:10004000C3050008C3050008C3050008C305000870
:10005000C3050008C3050008F1020008C305000835
:10006000C3050008C3050008C3050008C305000850
:10007000C3050008C3050008C3050008C305000840
:10008000C3050008C3050008C3050008C305000830
:10009000C3050008C3050008C3050008C305000820
:1000A000C305000839030008C3050008C30500089C
:1000B0009F260008C305000853030008C305000875
:1000C000C3050008C3050008C3050008C3050008F0
:1000D000C3050008A1210008C3050008C3050008E6
:1000E000C3050008C3050008C3050008C3050008D0
:1000F0007D030008C3050008C3050008C305000808
:10010000C3050008C3050008BB240008C305000898
:10011000C3050008C3050008C3050008C30500089F
:10012000C3050008C3050008C3050008C30500088F
:10013000DFF80CD002F0E2FE00480047A5010008FD
:100140008004002010B502F09FF802F00AFA02F0D5
:10015000E9FB53214FF0FF3002F0A3F902F04DFB11
:1001600002F05CFC01F0C0FF02F096FB02F054FBD1
:1001700002F0C4FC10BD10B54FF4967002F0BBFB4A
:1001800002F0B3FB4FF4FA7002F00FFD02F026FC10
:1001900001213B4801F0C6FA01213A4801F0C2FAB8
:1001A00010BD704786B000BF37A103C9CDE9040177
:1001B00000BFFFF7C7FFFFF7DEFF60E0FFF7F1FFCB
:1001C0003348008800F44040B0F5404F57D13048E4
:1001D0000478022C14D100202D4908802D48006895
:1001E0002D4909682D4A1268CDE9002102902C485A
:1001F00003682C4802682C4801682CA002F0B0FE6D
:10020000052C14D10020224908802E492E48006870
:1002100002F0E7FC064602F092FD05461D48036821
:100220001D482946026829A002F09AFE21E0062C0A
:1002300005D100201649088002F0DBFB19E0012CF3
:1002400007D10020124908800121234801F06AFAF1
:100250000FE0032C0AD100200D49088000211E4820
:1002600001F060FA00201849086002E00020084907
:1002700008804FF4FA7002F048FB02F036FB9DE76D
:1002800000080040002C014073743535366E640060
:10029000340000200400002000000020680000203E
:1002A00064000020600000205C00002025316425EF
:1002B000316425316425316420253464202534647B
:1002C000000000000000C84208000020253564201E
:1002D000253464202534640000340140704700BF99
:1002E000FEE700BFFEE700BFFEE700BFFEE7704786
:1002F00010B5012000F0CCFD01281CD100F0D9FD83
:100300004FF4FA7002F051FC0121254800F051FA37
:10031000012810D10A2002F048FC0221214800F0F7
:1003200055FA20B902211F4800F05DFA03E00221CE
:100330001C4800F05AFA10BD10B501211A4801F00E
:10034000BAFC28B10121184801F0C6FC02F099FB63
:1003500010BD10B502F0E6FB1448006814490860AF
:1003600014480068144908600020104908601149C9
:1003700008600121114801F0AFFC10BD10B501214A
:100380000F4801F098FC38B101210D4801F0A4FCA0
:1003900002F029F90B49086010BD7047704770479B
:1003A000000C014000080140002C014048000020E2
:1003B000000000204C000020040000200008004045
:1003C00000340140080000200CB50020019000908E
:1003D0006C48006840F480306A49086000BF694892
:1003E000006800F4003000900198401C01900098D3
:1003F00018B90198B0F5A06FF1D16248006800F417
:10040000003010B10120009001E000200090009821
:10041000012843D15C48006840F010005A49086048
:100420000846006820F0030008600846006840F0B5
:1004300002000860534840685249486008464068D6
:1004400048600846406840F480604860084640685C
:1004500020F47C1048600846406840F4E81048608A
:100460000846006840F08070086000BF454800689A
:1004700000F000700028F9D04248406820F00300E6
:10048000404948600846406840F00200486000BFAC
:100490003C48406800F00C000828F9D10CBD10B5AC
:1004A000FFF792FF10BD10B53648006840F001001C
:1004B000344908600846406834490840314948607A
:1004C00008460068324908402E490860084600681E
:1004D00020F4802008600846406820F4FE00486050
:1004E0004FF41F008860FFF7DAFF4FF000602949E2
:1004F000086010BD10B5002100200022214B5B6870
:1005000003F00C0121B1042906D0082928D107E005
:10051000214B224C236027E01F4B204C236023E01B
:10052000184B5B6803F47010164B5B6803F4803261
:10053000022303EB904022B9194B4343174C23602D
:100540000DE0104B5B6803F4003323B1144B4343BD
:10055000124C236003E0104B4343104C236003E034
:100560000D4B0E4C236000BF00BF064B5B68C3F30E
:1005700003130C4CE15C094B1B68CB40074C236018
:1005800010BD000000100240002002400000FFF8F3
:10059000FFFFF6FE08ED00E000127A000C000020DC
:1005A00000093D001000002006488047064800472B
:1005B000FEE7FEE7FEE7FEE7FEE7FEE7FEE7FEE713
:1005C000FEE7FEE7A70400083101000810B5044665
:1005D000CC48844208D10121042000F02DFB0021E9
:1005E000042000F029FB46E0C748844208D10121DD
:1005F000082000F021FB0021082000F01DFB3AE05C
:10060000C248844208D10121102000F015FB0021CE
:10061000102000F011FB2EE0BD48844208D10121DA
:10062000202000F009FB0021202000F005FB22E043
:10063000B848844208D10121402000F0FDFA002191
:10064000402000F0F9FA16E0B348844208D10121B5
:10065000802000F0F1FA0021802000F0EDFA0AE09D
:10066000AE48844207D10121801500F0E5FA00214F
:10067000A01500F0E1FA10BD10B50121084600F008
:10068000DBFA0021012000F0D7FA10BD2DE9F0417E
:10069000024600250026002000230024002791F8B0
:1006A00003C00CF00F0591F803C00CF0100CBCF166
:1006B000000F03D091F802C04CEA050591F800C084
:1006C000BCF1000F31D0146800202BE04FF0010C7A
:1006D0000CFA00F3B1F800C00CEA03069E4220D1E8
:1006E00083004FF00F0C0CFA03F7BC4305FA03FC30
:1006F0004CEA040491F803C0BCF1280F06D14FF076
:10070000010C0CFA00FCC2F814C00AE091F803C016
:10071000BCF1480F05D14FF0010C0CFA00FCC2F8F7
:1007200010C0401C0828D1D31460B1F800C0BCF13F
:10073000FF0F34DD546800202EE000F1080C4FF06C
:10074000010808FA0CF3B1F800C00CEA03069E4257
:1007500021D183004FF00F0C0CFA03F7BC4305FACC
:1007600003FC4CEA040491F803C0BCF1280F05D146
:1007700000F1080C08FA0CF8C2F8148091F803C0D4
:10078000BCF1480F07D100F1080C4FF0010808FA3E
:100790000CF8C2F81080401C0828CED35460BDE885
:1007A000F0814FF6FF710180022181700421C17038
:1007B00070470246002093680B400BB1012000E017
:1007C000002070470146886880B2704702460020CA
:1007D000D3680B400BB1012000E0002070470146B8
:1007E000C86880B2704701617047416170470AB1C3
:1007F000016100E041617047C16070474FF4803291
:100800000A4382618161826182698269704702461E
:100810000020434B18684FF68073184040EA0210DE
:1008200008433F4B186070473E49C8617047F0B5B8
:100830000A46002300240021002500F00046B6F1FE
:10084000004F02D1364EF16901E0354E7168C0F3B8
:10085000034583B200F44016B6F5401F08D121F0DD
:1008600070612F4E766826F070662D4F7E6012E024
:1008700000F48016B6F5801F06D1032606FA05F4AB
:10088000A14341F0706106E0460D360103FA06F619
:10089000B14341F0706122B1460D360103FA06F60C
:1008A000314300F00046B6F1004F02D11C4EF16119
:1008B00001E01B4E7160F0BD30B500228B071C0FAC
:1008C0000F2303FA04F2164B08338C1053F824302C
:1008D0009343134C08348D1044F8253023468C1074
:1008E00053F824308C07240F00FA04F423430C4CF3
:1008F00008348D1044F8253030BD0A49DC310860D9
:100900007047000000080140000C01400010014049
:100910000014014000180140001C0140002001406B
:100920000000014000002042DF48006840F0010064
:10093000DD49086008464068DC490840DA494860FB
:1009400008460068DA490840D74908600846006848
:1009500020F4802008600846406820F4FE004860CB
:100960004FF41F0088607047CF49096821F4803137
:10097000CD4A11601146096821F480211160B0F55B
:10098000803F03D0B0F5802F0ED106E0C64909683C
:1009900041F48031C44A116007E0C349096841F459
:1009A000A021C14A116000E000BF00BF704710B530
:1009B00001460022002300204A11012A02D1BA4C2C
:1009C000236806E0022A02D1B74C236A01E0B64C44
:1009D000636A01F01F02012494401C400CB1012005
:1009E00000E0002010BD38B5002000900024002554
:1009F00000BF3120FFF7DBFF05460098401C009048
:100A00000098B0F5A06F01D0002DF2D03120FFF793
:100A1000CEFF08B1012400E00024204638BD014685
:100A20000020A14A106820F0F80040EAC1001060E0
:100A30007047A04908607047024600209A4B5868EA
:100A400020F47C1042EA01031843974B586070472A
:100A500098490866704701460020934A506820F084
:100A600003000843506070478F48406800F00C0056
:100A70007047014600208C4A506820F0F00008437F
:100A80005060704701460020874A506820F4E060BB
:100A900008435060704701460020834A506820F4A4
:100AA000605040EAC1005060704729B17E4A527AD6
:100AB00002437D4B5A7204E07B4A527A82437A4B5E
:100AC0005A7270477B49D831086070470146002050
:100AD000754A506820F44040084350607047002138
:100AE000714A20321170704A82F82010012802D019
:100AF00004280AD104E001216B4A2032117005E07C
:100B00000521694A2032117000E000BF00BF704724
:100B10006949086070476449096A0143624A116281
:100B20007047654944390860704730B5002100229C
:100B3000002400235C4D6D6805F00C0121B10429EF
:100B400005D0082923D105E05C4D056022E05B4D0E
:100B500005601FE0544D6D6805F47012524D6D68CC
:100B600005F48034022505EB92421CB9544D5543DF
:100B700005600BE04C4D6D6805F400351DB1504D1E
:100B80005543056002E04D4D5543056002E04B4D75
:100B9000056000BF00BF444D6D6805F0F001090914
:100BA000484D6B5C0568DD4045603F4D6D6805F460
:100BB000E061090A434D6B5C4568DD4085603A4D54
:100BC0006D6805F46051C90A3E4D6B5C4568DD40B7
:100BD000C560354D6D6805F44041890B3A4D6B5C3D
:100BE000C568B5FBF3F5056130BD29B12E4A5269E0
:100BF00002432D4B5A6104E02B4A526982432A4B2F
:100C00005A61704729B1284A92690243264B9A617A
:100C100004E0254A92698243234B9A61704729B1C7
:100C2000214AD2690243204BDA6104E01E4AD269AC
:100C300082431D4BDA61704729B11B4AD2680243D7
:100C4000194BDA6004E0184AD2688243164BDA6026
:100C5000704729B1144A12690243134B1A6104E028
:100C6000114A12698243104B1A6170471249403988
:100C7000086070470F49C86470470B49C8717047D6
:100C80000948406A40F08070074948627047014651
:100C90000020054A92680A400AB1012000E00020C5
:100CA0007047014988727047001002400000FFF849
:100CB000FFFFF6FE000042428004424200127A002A
:100CC00000093D0020000020300000203149014390
:100CD000314A1160704770B5002100230F22C4789B
:100CE00004B32D4C246804F4E064C4F5E064210AE4
:100CF000C1F10403CA40447804FA03F18478144033
:100D000021430901254C0678A155047804F01F05FC
:100D10000124AC4005786D11AD0005F1E025C5F862
:100D2000004109E0047804F01F050124AC401C4D8B
:100D30000678761145F8264070BD1A4A0A400243EB
:100D4000154B1B1F1A60704739B1134A121D1268E8
:100D50000243114B1B1D1A6006E00F4A121D126858
:100D600082430D4B1B1D1A607047042808D14FF0B9
:100D7000E021096941F004014FF0E022116107E030
:100D80004FF0E021096921F004014FF0E0221161E8
:100D9000704700000000FA050CED00E000E400E000
:100DA00080E100E080FFFF1F002044490860091D2A
:100DB0000860091D0860091D086041483F49143159
:100DC0000860704700213D498279002A3AD00A46DE
:100DD000126803689A430B461A600A1D126803687A
:100DE0009A430B1D1A60027911440A6803681A437A
:100DF0000A60324A0832126803689A432F4B08335C
:100E00001A601A1D126803689A432C4B0C331A603F
:100E10004279102A0ED11A1F126803681A43274B11
:100E200008331A601A1D126803681A43234B0C33E7
:100E30001A600DE02149427911440A6803681A4397
:100E40000A6005E0027911440A6803689A430A605F
:100E500070470021016001710C21417100218171F5
:100E600070471649103109680143144A1032116065
:100E7000704701460020114A143212680A400AB134
:100E8000012000E0002070470C49143108607047D1
:100E9000014600200022094B1B6803EA0102074BB0
:100EA00014331B680B4013B10AB1012000E000208D
:100EB0007047024914310860704700000004014087
:100EC000FFFF0F0010B50446FE48844208D10121FF
:100ED000C014FFF7B1FE0021E014FFF7ADFEC4E03F
:100EE000B4F1804F08D101210846FFF7B2FE00217E
:100EF0000120FFF7AEFEB8E0F348844208D101219B
:100F00000220FFF7A6FE00210220FFF7A2FEACE0C0
:100F1000EE48844208D101210420FFF79AFE002107
:100F20000420FFF796FEA0E0E948844208D10121A1
:100F30000820FFF78EFE00210820FFF78AFE94E0CC
:100F4000E448844208D101211020FFF782FE0021ED
:100F50001020FFF77EFE88E0DF48844208D101219F
:100F60002020FFF776FE00212020FFF772FE7CE0B4
:100F7000DA48844208D101214014FFF75DFE0021C8
:100F80006014FFF759FE70E0D548844209D1012171
:100F9000C804FFF751FE00214FF40020FFF74CFE7C
:100FA00063E0D048844209D101210805FFF744FEDF
:100FB00000214FF48010FFF73FFE56E0CA488442FC
:100FC00009D101214805FFF737FE00214FF4001039
:100FD000FFF732FE49E0C548844208D10121402094
:100FE000FFF737FE00214020FFF733FE3DE0C04809
:100FF000844208D101218020FFF72BFE00218020B0
:10100000FFF727FE31E0BB48844208D1012180155B
:10101000FFF71FFE0021A015FFF71BFE25E0B648D5
:10102000844209D101210804FFF706FE00214FF494
:101030008030FFF701FE18E0B048844209D1012159
:101040004804FFF7F9FD00214FF40030FFF7F4FDED
:101050000BE0AB48844208D101218804FFF7ECFD86
:1010600000214FF48020FFF7E7FD10BD0022028829
:10107000944B98420ED0994B98420BD0B0F1804FD0
:1010800008D0914B984205D0904B984202D0904B9B
:10109000984204D14FF68F731A404B881A438D4BF8
:1010A000984207D08C4B984204D04FF6FF431A4029
:1010B000CB881A4302808B8883850B880385814BFC
:1010C00098420BD0854B984208D08B4B984205D064
:1010D0008A4B984202D08A4B984201D10B7A038600
:1010E00001238382704770B5002400220023058C01
:1010F0004FF6FE7635400584028C8388048B4FF6CC
:101100008F752C40B51E2C400D882C43751E2A402F
:101110000D892A434D882A436A4DA8420BD06F4D52
:10112000A84208D0744DA84205D0744DA84202D000
:10113000734DA84213D14FF6F7752A404D892A43C3
:101140004FF6FB752A408D882A434FF6FF652B40EA
:101150004FF6FF552B408D892B43CD892B43838040
:101160000483CD888586028470BD70B5002400227A
:101170000023058C4FF6EF7635400584028C83887A
:10118000048B48F6FF752C404FF6FF452C400D8828
:101190004FF6FF7606EA05252C434FF6DF752A4009
:1011A0000D8906EA05152A434D8806EA05152A43E6
:1011B000444DA84202D0494DA8421DD14FF67F753B
:1011C0002A404D894FF6FF7606EA05152A434FF669
:1011D000BF752A408D8806EA05152A434FF6FF356C
:1011E0002B404FF2FF752B408D8906EA85052B4376
:1011F000CD8906EA85052B4383800483CD88058746
:10120000028470BD70B5002400220023058C4FF6C7
:10121000FF6635400584028C8388848B4FF68F757A
:101220002C404FF6FC752C400D882C434FF6FF5593
:101230002A400D894FF6FF7606EA05252A434D8898
:1012400006EA05252A431F4DA84202D0234DA84295
:101250001DD14FF2FF752A404D894FF6FF7606EA01
:1012600005252A434FF6FF352A408D8806EA0525D5
:101270002A434EF6FF752B404DF6FF752B408D89A6
:1012800006EA05152B43CD8906EA05152B43838015
:101290008483CD888587028470BD70B500220023C9
:1012A0000024058C4EF6FF7635400584038C848837
:1012B000828B48F6FF752A404FF6FF452A400D887D
:1012C00020E00000002C0140000400400008004025
:1012D000000C0040001000400014004000340140A9
:1012E000004C0140005001400054014000180040F3
:1012F000001C00400020004000400140004401402C
:10130000004801404FF6FF7606EA05252A434DF6D0
:10131000FF752B400D8906EA05352B434D8806EAFB
:1013200005352B43FA4DA84202D0FA4DA84208D108
:101330004BF6FF752C408D894FF6FF7606EA851532
:101340002C4384808283CD88A0F84050038470BDF4
:10135000828B4FF2FF331A408283828B4FF6FF73EA
:1013600003EA01231A4382837047F0B50C46154601
:10137000002200210026078C4EF6FF7C07EA0C07AE
:101380000784828B018C4FF6FF7707EA043640F61C
:10139000FF473A404FF6FF7707EA05273A434FF6F3
:1013A000FF7707EA03373A43D94FB8420ED0D94FF7
:1013B000B8420BD0B0F1804F08D0D74FB84205D01B
:1013C000D64FB84202D0D64FB84206D14DF6FF777D
:1013D000394046F48057394305E047F6FF57394016
:1013E00044F48057394382830184F0BD828B4FF6E9
:1013F000F3731A408283828B0A4382837047F0B56D
:101400000C461546002200210026078C4FF6FF6C83
:1014100007EA0C070784828B018C4FF6FF7707EAF7
:1014200004264FF60C773A404FF6FF7707EA03178A
:101430002F433A43B64FB8420ED0B64FB8420BD006
:10144000B0F1804F08D0B44FB84205D0B34FB84286
:1014500002D0B34FB84206D14FF6FF57394046F499
:101460008077394305E04FF2FF57394044F48077E5
:10147000394382830184F0BD028B4FF2FF331A405F
:101480000283028B4FF6FF7303EA01231A430283A0
:101490007047F0B50C461546002200210026078C47
:1014A0004FF6EF7C07EA0C070784028B018C4FF69E
:1014B000FF7707EA041640F6FF473A404FF6FF77FA
:1014C00007EA03373A434FF6FF7707EA05273A431F
:1014D0008F4FB8420ED08F4FB8420BD0B0F1804F33
:1014E00008D08D4FB84205D08C4FB84202D08C4FF7
:1014F000B84206D14FF6DF77394046F0100739433E
:1015000005E04FF65F77394044F010073943028316
:101510000184F0BD028B4FF6F3731A400283028BF5
:101520000A4302837047F0B50C461546002200219D
:10153000068C4FF6FE773E400684028B018C4FF6F8
:101540000C7632407E1C06EA03162E433243704E60
:10155000B0420ED06F4EB0420BD0B0F1804F08D0E9
:101560006D4EB04205D06D4EB04202D06C4EB042CE
:1015700006D14FF6FD76314044F00106314305E0D7
:101580004FF6F576314044F0010631430283018481
:10159000F0BD70B505460C465D4885420ED05D48ED
:1015A00085420BD0B5F1804F08D05B48854205D00D
:1015B0005A48854202D05A48854200D100E000BF17
:1015C000208850B92389A28861882846FFF7ABFF9D
:1015D000E1882846FFF79EFF25E0208804280AD1ED
:1015E0002389A28861882846FFF753FFE1882846AF
:1015F000FFF742FF17E0208808280AD12389A28834
:1016000061882846FFF7FBFEE1882846FFF7EEFEDB
:1016100009E02389A28861882846FFF7A6FEE188B1
:101620002846FFF795FE70BD2DE9F04105460C46B2
:1016300000260127608808B9022600E00026A0885D
:10164000012801D1022700E001272088A0B92389C1
:10165000A28861882846FFF766FFE1882846FFF7E1
:1016600059FF23893A4631462846FFF712FFE188A1
:101670002846FFF701FF13E02389A28861882846E6
:10168000FFF707FFE1882846FFF7F6FE23893A4671
:1016900031462846FFF747FFE1882846FFF73AFF23
:1016A000BDE8F0810A884B881A438B881A43CB889F
:1016B0001A430B891A434B891A438B891A43A0F8A2
:1016C000442070474FF6FF71818000210180C18066
:1016D0004180017270470021018041808180C1807A
:1016E000018141818181C181704700210180418058
:1016F000012181800021C18001817047002101808A
:1017000041808180C18001814181818170470000D9
:10171000002C01400034014000040040000800405B
:10172000000C004021B1028842F00102028004E076
:1017300002884FF6FE731A400280704731B1B0F84C
:10174000442042F40042A0F8442005E0B0F84420D0
:10175000C2F30E02A0F8442070471AB183890B43EC
:10176000838102E083898B43838170478182704744
:1017700041EA0203A0F8483070471AB183890B434D
:10178000838102E083898B438381704701894FF60F
:10179000F8721140018170470A46002101894FF615
:1017A0008F73194011430181704730B504460D46CF
:1017B00029462046FFF7F0FF208940F007002081EE
:1017C00030BD2DE9F04104460D4616461F46602DFA
:1017D00006D13B46012231462046FFF75AFE05E07E
:1017E0003B46012231462046FFF79DFE2946204612
:1017F000FFF7D2FF208940F007002081BDE8F0818B
:1018000030B50C4600210189C9B24FF6FF7505EAD3
:101810000325154325432943018130BD2DE9F041BE
:1018200005460E4617469846002443463A4631463A
:101830002846FFF7E5FF2C894FF6F870044044F086
:1018400007044FF68F70044044F070042C81BDE80B
:10185000F081F0B504460D4616461F463B4632461B
:1018600029462046FFF7CCFF208940F480402081A4
:10187000F0BD0185828270470A46002101884FF63B
:101880008F731940114301807047F0B50C4615461F
:101890001E460021002200230189028B038C4FF693
:1018A000F877394021434FF6FC473A4040F20117A0
:1018B0003A434FF6DD773B404FF6FF7707EA0617CE
:1018C0002F433B43018102830384F0BD0A4600217C
:1018D000018B4FF68F7319401143018370470A46FD
:1018E0000021018B48F6FF7319404FF6FF7303EA9E
:1018F00002231943018370470A460021818B4FF66A
:101900008F7319401143818370470A460021818BF0
:1019100048F6FF7319404FF6FF7303EA0223194399
:101920008183704721B1028842F08002028004E086
:1019300002884FF67F731A400280704721B1828877
:1019400042F00402828004E082884FF6FB731A4062
:101950008280704721B1828842F00802828004E0D0
:1019600082884FF6F7731A408280704721B18288CF
:1019700042F00102828004E082884FF6FE731A4032
:10198000828070470A460021018B4FF6F773194099
:101990001143018370470A460021018B4FF2FF7308
:1019A00019404FF6FF7303EA02231943018370477E
:1019B0000A460021818B4FF6F7731940114381834A
:1019C00070470A460021818B4FF2FF7319404FF692
:1019D000FF7303EA02231943818370470A460021FB
:1019E000018B4FF6FB7319401143018370470A4680
:1019F0000021018B4FF6FF3319404FF6FF7303EAC6
:101A000002231943018370470A460021818B4FF658
:101A1000FB7319401143818370470A460021818B73
:101A20004FF6FF3319404FF6FF7303EA02231943C1
:101A3000818370470A460021018B4FF67F7319405E
:101A40001143018370470A460021018BC1F30E0147
:101A50004FF6FF7303EA02231943018370470A46D6
:101A60000021818B4FF67F731940114381837047AA
:101A70000A460021818BC1F30E014FF6FF7303EA82
:101A800002231943818370470A460021018C4FF6D7
:101A9000FD7319401143018470470A460021018CEF
:101AA0004FF6F77319401143018470470A4600212D
:101AB000018C4FF6DF7319404FF6FF7303EA0213F0
:101AC0001943018470470A460021018C4FF67F7349
:101AD00019404FF6FF7303EA02131943018470475C
:101AE0000A460021018C4FF6FF5319404FF6FF7351
:101AF00003EA02231943018470470A460021018C3E
:101B00004FF2FF7319404FF6FF7303EA02231943A4
:101B1000018470470A460021018C4DF6FF7319407D
:101B20004FF6FF7303EA023319430184704730B55F
:101B3000002301248C40A3B2048C9C430484048CB5
:101B400002FA01F5ADB22C43048430BD30B5002358
:101B500004248C40A3B2048C9C430484048C02FAB9
:101B600001F5ADB22C43048430BD70B503460020AE
:101B700000241846183001258D40ACB21D8CA543B9
:101B80001D8409B1082909D100EB6100056825F021
:101B9000700505600568154305600EE00D1FC5F36F
:101BA0004E052844056825F4E045056005684FF6B4
:101BB000FF7606EA02263543056070BD21B1028832
:101BC00042F00202028004E002884FF6FD731A40E0
:101BD0000280704721B1028842F00402028004E0D2
:101BE00002884FF6FB731A400280704721B1828849
:101BF00042F08002828004E082884FF67F731A40B0
:101C00008280704702884FF6F7731A40028002887C
:101C10000A430280704782884FF68F731A40828091
:101C200082880A438280704702894FF6F8731A400F
:101C3000028102890A430281704702894FF67F734D
:101C40001A40028102890A430281704781847047E9
:101C5000818570478186704701877047818770470B
:101C6000A0F84010704702884FF6FF431A400280E8
:101C700002880A43028070470146888E70470146F9
:101C8000088F70470146888F70470146B1F84000C1
:101C900070470146888C70470146088D70470246A0
:101CA0000020138A0B400BB1012000E00020704798
:101CB000CA430282704730B5024600200023002448
:101CC000158A05EA0103958905EA010413B10CB1EF
:101CD000012000E0002030BDCA43028270470000AE
:101CE00010B50446FB48844209D101218803FEF760
:101CF000A3FF00214FF48040FEF79EFF32E0F6483C
:101D0000844209D101214804FEF7A3FF00214FF4CA
:101D10000030FEF79EFF25E0F048844209D1012102
:101D20008804FEF796FF00214FF48020FEF791FF14
:101D300018E0EB48844209D10121C804FEF789FF6D
:101D400000214FF40020FEF784FF0BE0E5488442B9
:101D500008D101210805FEF77CFF00214FF4801017
:101D6000FEF777FF10BD2DE9F04786B005460E4619
:101D70000024A24600BFA1460027B08900B100BFE1
:101D80002F462C8A4CF6FF700440F08804432C82C6
:101D9000AC894EF6F3100440B0883189084371894C
:101DA00008430443AC81AC8A4FF6FF400440B0893D
:101DB0000443AC8201A8FEF7B8FEC648874202D1B0
:101DC000DDF810A001E0DDF80CA0A88900F40040C7
:101DD00040B10AEBCA0000EB0A1031684900B0FBC1
:101DE000F1F807E00AEBCA0000EB0A10316889003D
:101DF000B0FBF1F86420B8FBF0F004012009642185
:101E000001FB1089A88900F4004040B1322000EBAA
:101E1000C900B0FBF1F000F00700044308E03220F5
:101E200000EB09106421B0FBF1F000F00F00044357
:101E30002C8106B0BDE8F0874FF4165101600021F7
:101E40008180C18001810C21418100218181704705
:101E500010B502460020108A4FF2FF0318400B888D
:101E60004C8823438C882343CC8823431843108217
:101E700010BD0021018041808180C180704721B167
:101E8000828942F40052828104E082894DF6FF7318
:101E90001A4082817047F0B50346002400260025D1
:101EA000002040F66A17B94200D100BF1846C1F3BE
:101EB000421401F01F06012707FA06F5012C01D193
:101EC0000C3004E0022C01D1103000E014301AB1C3
:101ED00007682F43076002E00768AF430760F0BD63
:101EE0001AB1838A0B43838202E0838A8B43838205
:101EF0007047028A4FF6F0731A400282028A0A4340
:101F00000282704782894FF2FF731A408281828970
:101F10000A438281704721B1828942F002028281A4
:101F200004E082894FF6FD731A4082817047028A6D
:101F30004FF6DF731A400282028A0A430282704718
:101F400021B1028A42F48042028204E0028A4BF606
:101F5000FF731A4002827047C1F308028280704703
:101F600001468888C0F308007047818941F001016B
:101F700081817047028BD2B20283028B42EA012236
:101F800002837047028B02F47F420283028B0A4372
:101F90000283704721B1828A42F02002828204E0EB
:101FA000828A4FF6DF731A408282704721B1828A9B
:101FB00042F01002828204E0828A4FF6EF731A40E8
:101FC0008282704721B1828A42F00802828204E054
:101FD000828A4FF6F7731A408282704721B1828954
:101FE00042F40042828103E08289C2F30E028281C0
:101FF000704721B1828A42F40062828204E0828AC0
:102000004FF2FF731A4082827047828A4FF6FB7349
:102010001A408282828A0A438282704721B1828A70
:1020200042F00202828204E0828A4FF6FD731A4077
:102030008282704702460020B1F5007F00D100BFC8
:1020400013880B400BB1012000E00020704701F421
:102050000072B2F5007F00D100BFCA430280704712
:1020600070B50246002400230025002040F66A16C1
:10207000B14200D100BFC1F3421501F01F03012698
:1020800006FA03F3012D02D19689334006E0022DB2
:1020900002D1168A334001E0968A33400C120126A1
:1020A00006FA04F41688344013B10CB1012000E0A4
:1020B000002070BD10B50022002340F66A14A14232
:1020C00000D100BF0A1201249440A3B2DC43048073
:1020D00010BD0000003801400044004000480040AE
:1020E000004C00400050004000B587B001210420A2
:1020F000FEF788FD01210846FEF784FD01218803D3
:10210000FEF780FD03208DF81A004FF40070ADF843
:10211000180018208DF81B0006A94F48FEF7B6FAE4
:102120004FF48060ADF8180004208DF81B0006A95C
:102130004948FEF7ABFA4FF4E13002900020ADF8C9
:102140000C00ADF80E00ADF81000ADF814000C2036
:10215000ADF8120002A94148FFF705FE01213F48F2
:10216000FFF78DFE012240F225513C48FFF793FE18
:1021700040213A48FFF76BFF4FF4E060FEF7A6FD01
:1021800025208DF8040000208DF805008DF806004C
:1021900001208DF8070001A8FEF79DFD07B000BDE6
:1021A00010B540F225512D48FFF75AFF68B32B4870
:1021B000FFF7D6FEC4B22A48008800F44040B0F5CC
:1021C000404F2BD02648008800F40040B0F5004F67
:1021D0001CD1642C06D12248008840F4804020495C
:1021E00008801BE01E480088C0F30D001D490C54F8
:1021F0001B480088401C1A49088008460088C0F324
:102200000D0009280ADD0020088007E0732C05D1A5
:102210001348008840F400401149088010BD10B5F3
:10222000044621460D48FFF797FE00BF80210B486A
:10223000FFF700FF0028F9D010BD10B50446214675
:102240000648FFF789FE00BF80210448FFF7F2FE31
:102250000028F9D010BD00000008014000380140FE
:10226000340000207000002070B504460D46E1B235
:102270003348FFF771FE00BF80213148FFF7DAFED7
:102280000028F9D0204670BD00B587B00121042098
:10229000FEF7B8FC01210846FEF7B4FC01218803D3
:1022A000FEF7B0FC03208DF81A004FF40070ADF873
:1022B000180018208DF81B0006A92248FEF7E6F941
:1022C0004FF48060ADF8180004208DF81B0006A9BB
:1022D0001C48FEF7DBF94FF4E13002900020ADF826
:1022E0000C00ADF80E00ADF81000ADF814000C2095
:1022F000ADF8120002A91248FFF735FD0121104880
:10230000FFF7BDFD012240F225510D48FFF7C3FD47
:1023100040210B48FFF79BFE4FF4E060FEF7D6FC30
:1023200025208DF8040000208DF805008DF80600AA
:1023300001208DF8070001A8FEF7CDFC07B000BD15
:10234000003801400008014030B589B004460D4610
:1023500001210820FEF763FC01210420FEF752FC56
:102360002820ADF8200004208DF8230003208DF8EC
:10237000220008A96C48FEF789F9ADF81450002036
:10238000ADF81600A0B2ADF818000020ADF81A00A4
:1023900005A96648FEF76AFE0C20ADF8040000208F
:1023A000ADF806000120ADF808000020ADF80A00E5
:1023B000ADF80C0001A95D48FFF7EBF801221121EF
:1023C0005A48FFF7CAF901215848FFF7ABF94FF413
:1023D000C060FEF77BFC32208DF8100000208DF8E5
:1023E000110001208DF812008DF8130004A8FEF7EB
:1023F00072FC09B030BD30B589B004460D460121EC
:102400000820FEF70CFC01210420FEF7FBFB052051
:10241000ADF8200004208DF8230003208DF8220061
:1024200008A94148FEF732F9ADF814500020ADF884
:102430001600A0B2ADF818000020ADF81A0005A9EA
:102440003A48FEF713FE0020ADF80400ADF8060090
:102450000120ADF808000020ADF80A00ADF80C002E
:1024600001A93248FFF795F8012203212F48FFF711
:1024700074F901212D48FFF755F94FF4C060FEF7BC
:1024800025FC32208DF8100000208DF811008DF809
:10249000120001208DF8130004A8FEF71CFC09B0FF
:1024A00030BD70B504460D4629462046FFF7A3FF10
:1024B00029462046FFF748FF70BD70B504211A4831
:1024C000FEF777F9044620211748FEF772F9054612
:1024D00002211648FFF7EFFB68B1012C05D1144823
:1024E0000068401C1249086005E024B910480068E3
:1024F000401E0F49086010210C48FFF7DCFB68B153
:102500002DB90C480068401C0A49086006E0012DFE
:1025100004D108480068401E06490860132103489A
:10252000FFF7DAFB70BD000000080140000C00401E
:10253000480000204C00002008B54FF4C060FEF7B2
:10254000C5FB00208DF8010002208DF802001C2040
:102550008DF8000001208DF803006846FEF7BBFBF4
:1025600008BD1FB501210820FEF74CFB01210846DC
:10257000FEF755FB03208DF80E0010208DF80F009C
:102580008002ADF80C0003A94D48FEF77FF8042047
:102590008DF80F004003ADF80C0003A94848FEF782
:1025A00075F84FF08040FEF78DFC40F2E730ADF853
:1025B00004004720ADF800000020ADF80600ADF89B
:1025C000020069464FF08040FEF750FD012211469F
:1025D0009007FFF7C2F8FFF7AFFF00214FF08040F0
:1025E000FFF7A0F81FBD2DE9F05F00244FF0010BAD
:1025F000A2464FF480413248FEF7F5F8142000F06F
:10260000B9FA4FF480412E48FEF7EFF800BF4FF4BF
:1026100000412B48FEF7CDF80028F8D001218807AB
:10262000FFF780F808E00AF1010A41F658308245C8
:1026300002D94FF0000B06E04FF400412048FEF7AE
:10264000B8F80128EFD000BF00214FF08040FFF71D
:1026500069F8BBF1010F18D14FF08040FFF719FB6B
:1026600081461849096801EB4102C2EBC11109EB2F
:10267000C10000F057FB07460022134B00F0E3FABD
:10268000054600F075FB044600E0002400204FF0F2
:10269000804188840B4908602046BDE8F09F10B552
:1026A00001218807FFF707FB40B101218807FFF7E9
:1026B00013FB04480068401C0249086010BD00007C
:1026C000000C01405800002000004D401FB50121C2
:1026D0000420FEF7A4FA01214C48FFF7FDFA13206D
:1026E000ADF8040048F69F40ADF800000020ADF8BA
:1026F0000600ADF8020069464448FEF7B7FC012227
:1027000011464248FFF729F84FF4C060FEF7DEFAA1
:102710001E208DF80C0001208DF80D008DF80E00A4
:102720008DF80F0003A8FEF7D6FA1FBD1FB50121D3
:10273000C802FEF767FAC720ADF8040048F69F40CC
:10274000ADF800000020ADF80600ADF802008DF8ED
:10275000080069462E48FEF789FC01212C48FFF746
:10276000A7FA012241212A48FEF7F7FF4FF4A060A3
:10277000FEF7ACFA19208DF80C0000208DF80D0042
:102780008DF80E0001208DF80F0003A8FEF7A3FAC4
:102790001FBD1FB501214803FEF734FA6320ADF8D1
:1027A000040048F69F40ADF800000020ADF8060098
:1027B000ADF802008DF8080069461648FEF756FC91
:1027C00001211448FFF774FA012241211148FEF754
:1027D000C4FF4FF4C060FEF779FA2C208DF80C008E
:1027E00001208DF80D0002208DF80E0001208DF8DB
:1027F0000F0003A8FEF76FFA1FBD10B5FFF766FFC5
:10280000FFF794FFFFF7C5FF10BD00000008004070
:10281000002C0140003401401FB5FDF744FE0121AA
:102820000820FEF7EFF901210846FEF7EBF9032037
:102830008DF80E000120ADF80C0028208DF80F0057
:1028400003A91448FDF722FF00210120FEF734F808
:102850000120019000208DF8080008208DF8090063
:1028600001208DF80A0001A8FEF7ACFA4FF4A06031
:10287000FEF72CFA06208DF8000001208DF80100EB
:1028800000208DF8020001208DF803006846FEF755
:1028900022FA1FBD000C014008B5FDF704FE01211E
:1028A0000820FEF7AFF903208DF802000220ADF8F2
:1028B000000010208DF8030069461948FDF7E6FE78
:1028C00002211748FDF78FFF08BD10B502211448FB
:1028D000FDF77CFF20B902211148FDF784FF03E0DA
:1028E00002210F48FDF781FF10BD10B502210C48F1
:1028F000FDF779FF10BD10B5044602210848FDF729
:1029000074FF204600F051F910BD10B504460221B5
:102910000348FDF76AFF204600F02CF910BD0000C7
:10292000000C014000B589B001210220FEF777F9C3
:1029300001210820FEF766F901210846FEF762F939
:1029400001213348FFF7C8F942F20F70ADF81800C3
:102950004720ADF814000020ADF81A00ADF81600BD
:1029600005A92B48FEF782FB01212A48FDF75FFFEE
:102970006020ADF804000120ADF806000020ADF89D
:102980000C0001A92248FEF7F0FB08212048FFF7C0
:1029900002F803208DF822002020ADF82000182036
:1029A0008DF8230008A91C48FDF770FE0121184886
:1029B000FEF7B8FE09B000BD10B504462146144824
:1029C000FFF74AF910BD10B540F2DC511048FFF78F
:1029D00043F940F2EE2000F0E8F810BD10B54FF4D6
:1029E000FA710B48FFF738F940F2EE2000F0DDF8FD
:1029F00010BD10B502210848FDF7F7FEFFF7E3FF11
:102A000002210548FDF7EFFEFFF7E8FF10BD0000CB
:102A10000004004000081A00000C014008B5FDF752
:102A200042FD01210420FEF7EDF803208DF802009D
:102A30000220ADF8000010208DF8030069462E48F2
:102A4000FDF724FE08BD10B502212B48FDF7CBFE93
:102A50004FF4FA7000F0A9F802212748FDF7C5FEEF
:102A60004FF4FA7000F0A1F810BD10B50221224811
:102A7000FDF7B9FE10BD10B502211F48FDF7B5FEE8
:102A800010BD10B502211C48FDF7A0FE012802D19F
:102A9000FFF7F1FF06E002211748FDF797FE08B99E
:102AA000FFF7E3FF10BD10B500240CE0FFF7E3FFD4
:102AB0004FF4FA7000F079F8FFF7D7FF4FF4FA708F
:102AC00000F073F8641C032CF0DB10BD10B5FFF7A9
:102AD000D2FF4FF47A7000F068F8FFF7C6FF4FF4AA
:102AE000FA7000F062F8FFF7C6FF4FF47A7000F05A
:102AF0005CF8FFF7BAFF10BD0008014008B50121DE
:102B00001020FEF77FF803208DF802004FF4B2404A
:102B1000ADF8000048208DF8030069461048FDF725
:102B2000B5FD08BD10B54FF480710D48FDF741FEAD
:102B30000C4908604FF400610948FDF73AFE0A4964
:102B400008604FF480510648FDF733FE07490860DE
:102B50004FF480410248FDF72CFE0549086010BD86
:102B6000001001405C000020600000206400002094
:102B700068000020014601EBC1024FF0E0235A61DA
:102B800001221A6100229A6100BF4FF0E022106911
:102B900000F001021AB100F48032002AF5D00022C0
:102BA0004FF0E0231A619A617047014642F22832E1
:102BB0004A434FF0E0235A6101221A6100229A61D0
:102BC00000BF4FF0E022106900F001021AB100F4DA
:102BD0008032002AF5D000224FF0E0231A619A617A
:102BE000704780EA010210B502F00043400022D095
:102BF0004A001FD0010E01EB1261C0F35600C2F370
:102C0000560240F4000042F40002A0FB022000043F
:102C10007F39140400D0401C50EA124001D4400017
:102C2000491EC2B20C0604EBD010401C4008802A9A
:102C300002D003E0002010BD20F00100002900DADE
:102C40000020184310BD2DE9F04D81EA030404F083
:102C5000004B21F0004514464FF0000A23F00041DC
:102C600050EA050220D054EA01021DD0C5F30A57EC
:102C70000246C5F31303C1F31300C1F30A5640F42F
:102C8000801543F48013A7EB0608101BD64608F204
:102C9000FD3873EB050002D308F1010801E092183A
:102CA0005B41B8F1000F03DA00200146BDE8F08D6A
:102CB00000204FF48011064684460EE0171B73EB8C
:102CC000050705D3121B63EB050306434CEA010C11
:102CD00049084FEA300092185B4150EA0107EDD1F4
:102CE00052EA030012D082EA040083EA0501084395
:102CF00005D0101BAB4106D20122002306E00022C2
:102D00004FF0004302E06FF0010253101AEB06008F
:102D10004CEB085110EB0A0041EB0B01BDE8F04D04
:102D200000F08FB80EB540F2334102910021CDE999
:102D300000110A460B4600F093F803B000BD00F006
:102D4000004220F00040C10DC0F3160040F4000026
:102D50007F2901DA00207047962903DCC1F1960132
:102D6000C84001E096398840002AF4D040427047BC
:102D700001F0004330B421F0004150EA010206D0D6
:102D80000A0DA2F56072C1F31301002A02DC30BC07
:102D900000207047440F44EAC104C100E01830BC71
:102DA00000EBC25000F016B830B50B4601460020CB
:102DB0002022012409E021FA02F59D4205D303FAFD
:102DC00002F5491B04FA02F52844151EA2F101027E
:102DD000F1DC30BD0029A8BF7047401C490008BF86
:102DE00020F00100704710B4B0FA80FC00FA0CF03B
:102DF00050EA010404BF10BC704749B1CCF1200473
:102E000021FA04F411FA0CF118BF012121430843FF
:102E1000A3EB0C01CB1D4FEA00614FEA102042BF2B
:102E2000002010BC704700EBC35010440029A4BF21
:102E300010BC7047401C490008BF20F0010010BCC6
:102E4000704710B5141E73F1000408DA401C41F1FC
:102E5000000192185B411A4301D120F0010010BD1E
:102E60002DE9F04D92469B4611B1B1FA81F202E094
:102E7000B0FA80F22032904600F052F804460F4635
:102E800040EA0A0041EA0B0153465A46084313D070
:102E9000114653EA010019D0C8F14002504600F033
:102EA0004EF805460E4650465946424600F038F860
:102EB000084305D0012004E020463946BDE8F08DE6
:102EC0000020054346EAE0762C4337430A98630521
:102ED000E40AA0EB08000022FD0A44EA47540A3045
:102EE00002D500200146E9E7010510196941DDE935
:102EF000084500196941BDE8F04DA2E7064C074DB1
:102F000006E0E06840F0010394E8070098471034B9
:102F1000AC42F6D3FDF710F9E432000804330008A0
:102F2000202A04DB203A00FA02F100207047914089
:102F3000C2F1200320FA03F3194390407047202A7E
:102F400004DB203A21FA02F00021704721FA02F353
:102F5000D040C2F12002914008431946704700005A
:102F60000FB4054B10B503A9044A029800F018F8F5
:102F700010BC5DF814FB0000692200086C00002002
:102F800002E008C8121F08C1002AFAD17047704732
:102F9000002001E001C1121F002AFBD17047000090
:102FA0002DE9FF4F8BB088460546002606E0252810
:102FB0000BD0DDE90D1290476D1C761C2878002897
:102FC000F5D10FB03046BDE8F08F0024A146A246EF
:102FD0000122AE4900E0044315F8013F203B02FA0C
:102FE00003F00842F7D128782A2810D06FF02F027A
:102FF0002878A0F13001092915D809EB890102EBE5
:10300000410144F0020400EB01096D1CF0E758F89F
:10301000041B5FEA010903D544F40054C9F1000917
:1030200044F002046D1C28782E2817D115F8010FE2
:1030300044F004042A280ED06FF02F022878A0F163
:10304000300109290AD80AEB8A0102EB410100EBA1
:10305000010A6D1CF2E758F804AB6D1C28786C2847
:103060000FD006DC4C2817D068280DD06A2814D160
:1030700004E0742810D07A280FD10DE044F4001435
:103080000AE044F4801401E044F440146978814279
:1030900002D104F580146D1C6D1C2878692865D058
:1030A00006DC00288DD0632827D0642806D15DE097
:1030B0006E2808D073282AD0752877D0DDE90D1244
:1030C0009047761CE0E0C4F30250022809D00328A0
:1030D0000DD0D8F8001004280DD00E6008F10408B7
:1030E000D2E0D8F80010F217C1E90062F6E7D8F88C
:1030F00000100E80F2E70E70F0E718F8041B8DF850
:10310000001000208DF80100EB46012003E058F884
:1031100004BB4FF0FF3061074FF0000701D40AE015
:103120007F1C57450DDA8742FADB1BF80710002990
:10313000F6D106E07F1C8742FCDB1BF80710002954
:10314000F8D1DDE90D23A9EB07008146214600F007
:10315000B1F83044C61904E0DDE90D121BF8010B8B
:1031600090477F1EF8D22146484688E058F8040B65
:10317000C4F302514FF00A0B032900D100B2042915
:1031800000D140B2002802DA40422D2102E02105A0
:1031900005D52B218DF82410012104E006E0E1077C
:1031A00010D02021F6E708AF089113E058F8040B7F
:1031B000C4F302514FF00A0B032900D180B2042955
:1031C00000D1C0B20021EEE75946FFF7EDFD3031E6
:1031D00007F8011D0028F7D1ADEB070000F1200B27
:1031E000600702D524F4803401E04FF0010ADA458B
:1031F00002DDAAEB0B0000E00020824600EB0B0191
:1032000008980144A9EB01000A90E00306D4DDE927
:103210000D2321460A9800F04DF806444FF00009AE
:1032200008E009A911F80900DDE90D12904709F13C
:103230000109761C08998945F3DBE0030CD5DDE92B
:103240000D2321460A9800F035F8064404E0DDE934
:103250000D1230209047761CBAF10001AAF1010A44
:10326000F5DC05E0DDE90D1217F8010B9047761C3F
:10327000BBF10001ABF1010BF4DC0A982146DDE95A
:103280000D2300F005F806446D1C97E6092801009F
:103290002DE9F041044600251E461746880404D453
:1032A00005E039462020B0476D1C641EF9D528463C
:1032B000BDE8F0812DE9F041044600251E46904608
:1032C000C80301D5302700E02027880404D505E095
:1032D00041463846B0476D1C641EF9D52846BDE806
:1032E000F08100000433000800000020700000009E
:1032F000802F0008743300087000002010040000C4
:10330000902F0008000000000000000000000000F6
:1033100000A24A04000000000000000001020304B3
:10332000060708090000000001020304010203046B
:10333000060708090204060800000000000000005B
:10334000000000000000000000000000000000007D
:10335000000000000000000000000000000000006D
:10336000000000000000000000000000000000005D
:043370000000000059
:04000005080005A941
:00000001FF
